{
  "contractName": "SummaryContract",
  "abi": [
    {
      "constant": true,
      "inputs": [],
      "name": "mOwnerAddr",
      "outputs": [
        {
          "name": "",
          "type": "address"
        }
      ],
      "payable": false,
      "stateMutability": "view",
      "type": "function"
    },
    {
      "inputs": [
        {
          "name": "userAddr",
          "type": "address"
        }
      ],
      "payable": false,
      "stateMutability": "nonpayable",
      "type": "constructor"
    },
    {
      "constant": false,
      "inputs": [
        {
          "name": "inSeller",
          "type": "address"
        },
        {
          "name": "inContractName",
          "type": "string"
        }
      ],
      "name": "createNewContract",
      "outputs": [],
      "payable": false,
      "stateMutability": "nonpayable",
      "type": "function"
    },
    {
      "constant": false,
      "inputs": [
        {
          "name": "inContractAddr",
          "type": "address"
        },
        {
          "name": "inContractName",
          "type": "string"
        }
      ],
      "name": "addTempContract",
      "outputs": [],
      "payable": false,
      "stateMutability": "nonpayable",
      "type": "function"
    },
    {
      "constant": true,
      "inputs": [],
      "name": "getTempContractLen",
      "outputs": [
        {
          "name": "",
          "type": "uint256"
        }
      ],
      "payable": false,
      "stateMutability": "view",
      "type": "function"
    },
    {
      "constant": true,
      "inputs": [
        {
          "name": "inIndex",
          "type": "uint256"
        }
      ],
      "name": "getTempContractAtIndex",
      "outputs": [
        {
          "name": "oName",
          "type": "string"
        },
        {
          "name": "oRelatedUser",
          "type": "address"
        },
        {
          "name": "oContractAddr",
          "type": "address"
        },
        {
          "name": "oStatus",
          "type": "uint8"
        }
      ],
      "payable": false,
      "stateMutability": "view",
      "type": "function"
    },
    {
      "constant": false,
      "inputs": [
        {
          "name": "inIndex",
          "type": "uint256"
        }
      ],
      "name": "delTempContractAtIndex",
      "outputs": [],
      "payable": false,
      "stateMutability": "nonpayable",
      "type": "function"
    },
    {
      "constant": false,
      "inputs": [
        {
          "name": "inIndex",
          "type": "uint256"
        }
      ],
      "name": "addTempContract2List",
      "outputs": [],
      "payable": false,
      "stateMutability": "nonpayable",
      "type": "function"
    },
    {
      "constant": true,
      "inputs": [
        {
          "name": "inIndex",
          "type": "uint256"
        }
      ],
      "name": "getContractInfoAtIndex",
      "outputs": [
        {
          "name": "oName",
          "type": "string"
        },
        {
          "name": "oRelatedUser",
          "type": "address"
        },
        {
          "name": "oContractAddr",
          "type": "address"
        },
        {
          "name": "oStatus",
          "type": "uint8"
        }
      ],
      "payable": false,
      "stateMutability": "view",
      "type": "function"
    },
    {
      "constant": true,
      "inputs": [],
      "name": "getMainContractLen",
      "outputs": [
        {
          "name": "",
          "type": "uint256"
        }
      ],
      "payable": false,
      "stateMutability": "view",
      "type": "function"
    },
    {
      "constant": false,
      "inputs": [
        {
          "name": "inIndex",
          "type": "uint256"
        }
      ],
      "name": "disableContractAtIndex",
      "outputs": [],
      "payable": false,
      "stateMutability": "nonpayable",
      "type": "function"
    }
  ],
  "bytecode": "0x608060405234801561001057600080fd5b50604051602080613c6d8339810180604052810190808051906020019092919050505080600360006101000a81548173ffffffffffffffffffffffffffffffffffffffff021916908373ffffffffffffffffffffffffffffffffffffffff16021790555050613be9806100846000396000f300608060405260043610620000ae576000357c0100000000000000000000000000000000000000000000000000000000900463ffffffff168062621e5914620000b3578063374a6aab14620000e1578063402670c3146200010f5780637a466ad3146200013f5780637b1323b7146200016f5780637d742ff3146200019f578063b72b9acd14620002be578063c98d2f63146200034a578063cac994601462000469578063f9c9b30314620004c3575b600080fd5b348015620000c057600080fd5b50620000cb6200054f565b6040518082815260200191505060405180910390f35b348015620000ee57600080fd5b50620000f9620005b9565b6040518082815260200191505060405180910390f35b3480156200011c57600080fd5b506200013d6004803603810190808035906020019092919050505062000623565b005b3480156200014c57600080fd5b506200016d60048036038101908080359060200190929190505050620006ec565b005b3480156200017c57600080fd5b506200019d6004803603810190808035906020019092919050505062000b74565b005b348015620001ac57600080fd5b50620001cd6004803603810190808035906020019092919050505062000e39565b60405180806020018573ffffffffffffffffffffffffffffffffffffffff1673ffffffffffffffffffffffffffffffffffffffff1681526020018473ffffffffffffffffffffffffffffffffffffffff1673ffffffffffffffffffffffffffffffffffffffff1681526020018360ff1660ff168152602001828103825286818151815260200191508051906020019080838360005b838110156200027f57808201518184015260208101905062000262565b50505050905090810190601f168015620002ad5780820380516001836020036101000a031916815260200191505b509550505050505060405180910390f35b348015620002cb57600080fd5b5062000348600480360381019080803573ffffffffffffffffffffffffffffffffffffffff169060200190929190803590602001908201803590602001908080601f016020809104026020016040519081016040528093929190818152602001838380828437820191505050505050919291929050505062001042565b005b3480156200035757600080fd5b50620003786004803603810190808035906020019092919050505062001327565b60405180806020018573ffffffffffffffffffffffffffffffffffffffff1673ffffffffffffffffffffffffffffffffffffffff1681526020018473ffffffffffffffffffffffffffffffffffffffff1673ffffffffffffffffffffffffffffffffffffffff1681526020018360ff1660ff168152602001828103825286818151815260200191508051906020019080838360005b838110156200042a5780820151818401526020810190506200040d565b50505050905090810190601f168015620004585780820380516001836020036101000a031916815260200191505b509550505050505060405180910390f35b3480156200047657600080fd5b506200048162001530565b604051808273ffffffffffffffffffffffffffffffffffffffff1673ffffffffffffffffffffffffffffffffffffffff16815260200191505060405180910390f35b348015620004d057600080fd5b506200054d600480360381019080803573ffffffffffffffffffffffffffffffffffffffff169060200190929190803590602001908201803590602001908080601f016020809104026020016040519081016040528093929190818152602001838380828437820191505050505050919291929050505062001556565b005b6000600360009054906101000a900473ffffffffffffffffffffffffffffffffffffffff1673ffffffffffffffffffffffffffffffffffffffff163373ffffffffffffffffffffffffffffffffffffffff16141515620005ae57600080fd5b600580549050905090565b6000600360009054906101000a900473ffffffffffffffffffffffffffffffffffffffff1673ffffffffffffffffffffffffffffffffffffffff163373ffffffffffffffffffffffffffffffffffffffff161415156200061857600080fd5b600480549050905090565b600360009054906101000a900473ffffffffffffffffffffffffffffffffffffffff1673ffffffffffffffffffffffffffffffffffffffff163373ffffffffffffffffffffffffffffffffffffffff161415156200068057600080fd5b60058054905081101580620006955750600081105b15620006a157620006e9565b60006002811115620006af57fe5b600582815481101515620006bf57fe5b906000526020600020906003020160020160146101000a81548160ff021916908360ff1602179055505b50565b6000600360009054906101000a900473ffffffffffffffffffffffffffffffffffffffff1673ffffffffffffffffffffffffffffffffffffffff163373ffffffffffffffffffffffffffffffffffffffff161415156200074b57600080fd5b60048054905082101580620007605750600082105b156200076c5762000b70565b60056004838154811015156200077e57fe5b90600052602060002090600302019080600181540180825580915050906001820390600052602060002090600302016000909192909190915060008201816000019080546001816001161561010002031660029004620007e092919062001780565b506001820160009054906101000a900473ffffffffffffffffffffffffffffffffffffffff168160010160006101000a81548173ffffffffffffffffffffffffffffffffffffffff021916908373ffffffffffffffffffffffffffffffffffffffff1602179055506002820160009054906101000a900473ffffffffffffffffffffffffffffffffffffffff168160020160006101000a81548173ffffffffffffffffffffffffffffffffffffffff021916908373ffffffffffffffffffffffffffffffffffffffff1602179055506002820160149054906101000a900460ff168160020160146101000a81548160ff021916908360ff16021790555050505060016002811115620008ee57fe5b60056001600580549050038154811015156200090657fe5b906000526020600020906003020160020160146101000a81548160ff021916908360ff1602179055508190505b60016004805490500381101562000aba576004600182018154811015156200095757fe5b90600052602060002090600302016004828154811015156200097557fe5b906000526020600020906003020160008201816000019080546001816001161561010002031660029004620009ac92919062001780565b506001820160009054906101000a900473ffffffffffffffffffffffffffffffffffffffff168160010160006101000a81548173ffffffffffffffffffffffffffffffffffffffff021916908373ffffffffffffffffffffffffffffffffffffffff1602179055506002820160009054906101000a900473ffffffffffffffffffffffffffffffffffffffff168160020160006101000a81548173ffffffffffffffffffffffffffffffffffffffff021916908373ffffffffffffffffffffffffffffffffffffffff1602179055506002820160149054906101000a900460ff168160020160146101000a81548160ff021916908360ff160217905550905050808060010191505062000933565b600460016004805490500381548110151562000ad257fe5b90600052602060002090600302016000808201600062000af391906200180e565b6001820160006101000a81549073ffffffffffffffffffffffffffffffffffffffff02191690556002820160006101000a81549073ffffffffffffffffffffffffffffffffffffffff02191690556002820160146101000a81549060ff02191690555050600480548091906001900362000b6e91906200185a565b505b5050565b6000600360009054906101000a900473ffffffffffffffffffffffffffffffffffffffff1673ffffffffffffffffffffffffffffffffffffffff163373ffffffffffffffffffffffffffffffffffffffff1614151562000bd357600080fd5b6004805490508210158062000be85750600082105b1562000bf45762000e35565b8190505b60016004805490500381101562000d7f5760046001820181548110151562000c1c57fe5b906000526020600020906003020160048281548110151562000c3a57fe5b90600052602060002090600302016000820181600001908054600181600116156101000203166002900462000c7192919062001780565b506001820160009054906101000a900473ffffffffffffffffffffffffffffffffffffffff168160010160006101000a81548173ffffffffffffffffffffffffffffffffffffffff021916908373ffffffffffffffffffffffffffffffffffffffff1602179055506002820160009054906101000a900473ffffffffffffffffffffffffffffffffffffffff168160020160006101000a81548173ffffffffffffffffffffffffffffffffffffffff021916908373ffffffffffffffffffffffffffffffffffffffff1602179055506002820160149054906101000a900460ff168160020160146101000a81548160ff021916908360ff160217905550905050808060010191505062000bf8565b600460016004805490500381548110151562000d9757fe5b90600052602060002090600302016000808201600062000db891906200180e565b6001820160006101000a81549073ffffffffffffffffffffffffffffffffffffffff02191690556002820160006101000a81549073ffffffffffffffffffffffffffffffffffffffff02191690556002820160146101000a81549060ff02191690555050600480548091906001900362000e3391906200185a565b505b5050565b60606000806000600360009054906101000a900473ffffffffffffffffffffffffffffffffffffffff1673ffffffffffffffffffffffffffffffffffffffff163373ffffffffffffffffffffffffffffffffffffffff1614151562000e9d57600080fd5b6004805490508510158062000eb25750600085105b1562000ebe576200103b565b60048581548110151562000ece57fe5b906000526020600020906003020160000160048681548110151562000eef57fe5b906000526020600020906003020160010160009054906101000a900473ffffffffffffffffffffffffffffffffffffffff1660048781548110151562000f3157fe5b906000526020600020906003020160020160009054906101000a900473ffffffffffffffffffffffffffffffffffffffff1660048881548110151562000f7357fe5b906000526020600020906003020160020160149054906101000a900460ff16838054600181600116156101000203166002900480601f0160208091040260200160405190810160405280929190818152602001828054600181600116156101000203166002900480156200102b5780601f1062000fff576101008083540402835291602001916200102b565b820191906000526020600020905b8154815290600101906020018083116200100d57829003601f168201915b5050505050935093509350935093505b9193509193565b600360009054906101000a900473ffffffffffffffffffffffffffffffffffffffff1673ffffffffffffffffffffffffffffffffffffffff163373ffffffffffffffffffffffffffffffffffffffff161415156200109f57600080fd5b80600080019080519060200190620010b99291906200188f565b5081600060010160006101000a81548173ffffffffffffffffffffffffffffffffffffffff021916908373ffffffffffffffffffffffffffffffffffffffff160217905550816200110962001916565b808273ffffffffffffffffffffffffffffffffffffffff1673ffffffffffffffffffffffffffffffffffffffff168152602001915050604051809103906000f0801580156200115c573d6000803e3d6000fd5b50600060020160006101000a81548173ffffffffffffffffffffffffffffffffffffffff021916908373ffffffffffffffffffffffffffffffffffffffff16021790555060016002811115620011ae57fe5b600060020160146101000a81548160ff021916908360ff1602179055506005600090806001815401808255809150509060018203906000526020600020906003020160009091929091909150600082018160000190805460018160011615610100020316600290046200122392919062001780565b506001820160009054906101000a900473ffffffffffffffffffffffffffffffffffffffff168160010160006101000a81548173ffffffffffffffffffffffffffffffffffffffff021916908373ffffffffffffffffffffffffffffffffffffffff1602179055506002820160009054906101000a900473ffffffffffffffffffffffffffffffffffffffff168160020160006101000a81548173ffffffffffffffffffffffffffffffffffffffff021916908373ffffffffffffffffffffffffffffffffffffffff1602179055506002820160149054906101000a900460ff168160020160146101000a81548160ff021916908360ff1602179055505050505050565b60606000806000600360009054906101000a900473ffffffffffffffffffffffffffffffffffffffff1673ffffffffffffffffffffffffffffffffffffffff163373ffffffffffffffffffffffffffffffffffffffff161415156200138b57600080fd5b60058054905085101580620013a05750600085105b15620013ac5762001529565b600585815481101515620013bc57fe5b9060005260206000209060030201600001600586815481101515620013dd57fe5b906000526020600020906003020160010160009054906101000a900473ffffffffffffffffffffffffffffffffffffffff166005878154811015156200141f57fe5b906000526020600020906003020160020160009054906101000a900473ffffffffffffffffffffffffffffffffffffffff166005888154811015156200146157fe5b906000526020600020906003020160020160149054906101000a900460ff16838054600181600116156101000203166002900480601f016020809104026020016040519081016040528092919081815260200182805460018160011615610100020316600290048015620015195780601f10620014ed5761010080835404028352916020019162001519565b820191906000526020600020905b815481529060010190602001808311620014fb57829003601f168201915b5050505050935093509350935093505b9193509193565b600360009054906101000a900473ffffffffffffffffffffffffffffffffffffffff1681565b80600080019080519060200190620015709291906200188f565b5033600060010160006101000a81548173ffffffffffffffffffffffffffffffffffffffff021916908373ffffffffffffffffffffffffffffffffffffffff16021790555081600060020160006101000a81548173ffffffffffffffffffffffffffffffffffffffff021916908373ffffffffffffffffffffffffffffffffffffffff160217905550600060028111156200160757fe5b600060020160146101000a81548160ff021916908360ff1602179055506004600090806001815401808255809150509060018203906000526020600020906003020160009091929091909150600082018160000190805460018160011615610100020316600290046200167c92919062001780565b506001820160009054906101000a900473ffffffffffffffffffffffffffffffffffffffff168160010160006101000a81548173ffffffffffffffffffffffffffffffffffffffff021916908373ffffffffffffffffffffffffffffffffffffffff1602179055506002820160009054906101000a900473ffffffffffffffffffffffffffffffffffffffff168160020160006101000a81548173ffffffffffffffffffffffffffffffffffffffff021916908373ffffffffffffffffffffffffffffffffffffffff1602179055506002820160149054906101000a900460ff168160020160146101000a81548160ff021916908360ff1602179055505050505050565b828054600181600116156101000203166002900490600052602060002090601f016020900481019282601f10620017bb5780548555620017fb565b82800160010185558215620017fb57600052602060002091601f016020900482015b82811115620017fa578254825591600101919060010190620017dd565b5b5090506200180a919062001927565b5090565b50805460018160011615610100020316600290046000825580601f1062001836575062001857565b601f01602090049060005260206000209081019062001856919062001927565b5b50565b8154818355818111156200188a576003028160030283600052602060002091820191016200188991906200194f565b5b505050565b828054600181600116156101000203166002900490600052602060002090601f016020900481019282601f10620018d257805160ff191683800117855562001903565b8280016001018555821562001903579182015b8281111562001902578251825591602001919060010190620018e5565b5b50905062001912919062001927565b5090565b6040516121d880620019e683390190565b6200194c91905b80821115620019485760008160009055506001016200192e565b5090565b90565b620019e291905b80821115620019de57600080820160006200197291906200180e565b6001820160006101000a81549073ffffffffffffffffffffffffffffffffffffffff02191690556002820160006101000a81549073ffffffffffffffffffffffffffffffffffffffff02191690556002820160146101000a81549060ff02191690555060030162001956565b5090565b90560060806040523480156200001157600080fd5b50604051602080620021d88339810180604052810190808051906020019092919050505060408051908101604052803373ffffffffffffffffffffffffffffffffffffffff1673ffffffffffffffffffffffffffffffffffffffff1681526020018273ffffffffffffffffffffffffffffffffffffffff1673ffffffffffffffffffffffffffffffffffffffff168152506007906002620000b49291906200038b565b5060008060006101000a81548160ff02191690836002811115620000d457fe5b02179055506000600b60006101000a81548160ff02191690836005811115620000f957fe5b02179055506060604051908101604052806000151515158152602001600015151515815260200160001515151581525060099060036200013b9291906200040d565b5060a060405190810160405280600063ffffffff168152602001600063ffffffff168152602001600060018111156200017057fe5b8152602001600063ffffffff168152602001600063ffffffff16815250600260008201518160000160006101000a81548163ffffffff021916908363ffffffff16021790555060208201518160000160046101000a81548163ffffffff021916908363ffffffff16021790555060408201518160000160086101000a81548160ff021916908360018111156200020257fe5b021790555060608201518160000160096101000a81548163ffffffff021916908363ffffffff160217905550608082015181600001600d6101000a81548163ffffffff021916908363ffffffff160217905550905050608060405190810160405280602060405190810160405280600081525081526020016020604051908101604052806000815250815260200160206040519081016040528060008152508152602001602060405190810160405280600081525081525060036000820151816000019080519060200190620002da929190620004ad565b506020820151816001019080519060200190620002f9929190620004ad565b50604082015181600201908051906020019062000318929190620004ad565b50606082015181600301908051906020019062000337929190620004ad565b50905050608060405190810160405280600015151515815260200160001515151581526020016000151515158152602001600015151515815250600a9060046200038392919062000534565b505062000675565b8260028101928215620003fa579160200282015b82811115620003f95782518260006101000a81548173ffffffffffffffffffffffffffffffffffffffff021916908373ffffffffffffffffffffffffffffffffffffffff160217905550916020019190600101906200039f565b5b509050620004099190620005d4565b5090565b826003601f016020900481019282156200049a5791602002820160005b838211156200046957835183826101000a81548160ff02191690831515021790555092602001926001016020816000010492830192600103026200042a565b8015620004985782816101000a81549060ff021916905560010160208160000104928301926001030262000469565b505b509050620004a991906200061a565b5090565b828054600181600116156101000203166002900490600052602060002090601f016020900481019282601f10620004f057805160ff191683800117855562000521565b8280016001018555821562000521579182015b828111156200052057825182559160200191906001019062000503565b5b5090506200053091906200064d565b5090565b826004601f01602090048101928215620005c15791602002820160005b838211156200059057835183826101000a81548160ff021916908315150217905550926020019260010160208160000104928301926001030262000551565b8015620005bf5782816101000a81549060ff021916905560010160208160000104928301926001030262000590565b505b509050620005d091906200061a565b5090565b6200061791905b808211156200061357600081816101000a81549073ffffffffffffffffffffffffffffffffffffffff021916905550600101620005db565b5090565b90565b6200064a91905b808211156200064657600081816101000a81549060ff02191690555060010162000621565b5090565b90565b6200067291905b808211156200066e57600081600090555060010162000654565b5090565b90565b611b5380620006856000396000f3006080604052600436106100d0576000357c0100000000000000000000000000000000000000000000000000000000900463ffffffff168063063be490146100d557806330ff9ba31461013e57806351dc62821461016e5780635ad219941461034257806368af313c14610387578063771e3a821461040c578063af40274114610479578063b9dae143146104cc578063be6c42631461051e578063c032846b146105cd578063cc2ee19614610606578063d08d053c14610659578063fb350c8114610692578063fefc8c42146106fb575b600080fd5b3480156100e157600080fd5b5061013c600480360381019080803590602001908201803590602001908080601f016020809104026020016040519081016040528093929190818152602001838380828437820191505050505050919291929050505061076b565b005b34801561014a57600080fd5b5061016c600480360381019080803560ff1690602001909291905050506108a1565b005b34801561017a57600080fd5b50610183610e83565b6040518080602001806020018060200180602001858103855289818151815260200191508051906020019080838360005b838110156101cf5780820151818401526020810190506101b4565b50505050905090810190601f1680156101fc5780820380516001836020036101000a031916815260200191505b50858103845288818151815260200191508051906020019080838360005b8381101561023557808201518184015260208101905061021a565b50505050905090810190601f1680156102625780820380516001836020036101000a031916815260200191505b50858103835287818151815260200191508051906020019080838360005b8381101561029b578082015181840152602081019050610280565b50505050905090810190601f1680156102c85780820380516001836020036101000a031916815260200191505b50858103825286818151815260200191508051906020019080838360005b838110156103015780820151818401526020810190506102e6565b50505050905090810190601f16801561032e5780820380516001836020036101000a031916815260200191505b509850505050505050505060405180910390f35b34801561034e57600080fd5b5061036d6004803603810190808035906020019092919050505061111a565b604051808215151515815260200191505060405180910390f35b34801561039357600080fd5b5061039c611143565b604051808663ffffffff1663ffffffff1681526020018563ffffffff1663ffffffff1681526020018460018111156103d057fe5b60ff1681526020018363ffffffff1663ffffffff1681526020018263ffffffff1663ffffffff1681526020019550505050505060405180910390f35b34801561041857600080fd5b50610437600480360381019080803590602001909291905050506111c7565b604051808273ffffffffffffffffffffffffffffffffffffffff1673ffffffffffffffffffffffffffffffffffffffff16815260200191505060405180910390f35b34801561048557600080fd5b5061048e6111fc565b6040518082600260200280838360005b838110156104b957808201518184015260208101905061049e565b5050505090500191505060405180910390f35b3480156104d857600080fd5b5061051c6004803603810190808060600190600380602002604051908101604052809291908260036020028082843782019150505050509192919290505050611275565b005b34801561052a57600080fd5b506105cb600480360381019080803590602001908201803590602001908080601f0160208091040260200160405190810160405280939291908181526020018383808284378201915050505050509192919290803590602001908201803590602001908080601f016020809104026020016040519081016040528093929190818152602001838380828437820191505050505050919291929050505061134d565b005b3480156105d957600080fd5b506105e26114cf565b604051808260028111156105f257fe5b60ff16815260200191505060405180910390f35b34801561061257600080fd5b5061061b6114e5565b6040518082600360200280838360005b8381101561064657808201518184015260208101905061062b565b5050505090500191505060405180910390f35b34801561066557600080fd5b5061066e611555565b6040518082600581111561067e57fe5b60ff16815260200191505060405180910390f35b34801561069e57600080fd5b506106f9600480360381019080803590602001908201803590602001908080601f0160208091040260200160405190810160405280939291908181526020018383808284378201915050505050509192919290505050611568565b005b34801561070757600080fd5b50610769600480360381019080803563ffffffff169060200190929190803563ffffffff169060200190929190803560ff169060200190929190803563ffffffff169060200190929190803563ffffffff16906020019092919050505061169e565b005b6002600581111561077857fe5b600b60009054906101000a900460ff16600581111561079357fe5b14151561079f57600080fd5b600760016002811015156107af57fe5b0160009054906101000a900473ffffffffffffffffffffffffffffffffffffffff1673ffffffffffffffffffffffffffffffffffffffff163373ffffffffffffffffffffffffffffffffffffffff1614151561080a57600080fd5b6000600281111561081757fe5b6001600060028110151561082757fe5b602091828204019190069054906101000a900460ff16600281111561084857fe5b14151561085457600080fd5b8060038001908051906020019061086c9291906118a2565b506001600a600360048110151561087f57fe5b602091828204019190066101000a81548160ff02191690831515021790555050565b600160028111156108ae57fe5b6000809054906101000a900460ff1660028111156108c857fe5b141515156108d557600080fd5b600760006002811015156108e557fe5b0160009054906101000a900473ffffffffffffffffffffffffffffffffffffffff1673ffffffffffffffffffffffffffffffffffffffff163373ffffffffffffffffffffffffffffffffffffffff16148061099c57506007600160028110151561094b57fe5b0160009054906101000a900473ffffffffffffffffffffffffffffffffffffffff1673ffffffffffffffffffffffffffffffffffffffff163373ffffffffffffffffffffffffffffffffffffffff16145b15156109a757600080fd5b600060058111156109b457fe5b600b60009054906101000a900460ff1660058111156109cf57fe5b141515156109dc57600080fd5b600760006002811015156109ec57fe5b0160009054906101000a900473ffffffffffffffffffffffffffffffffffffffff1673ffffffffffffffffffffffffffffffffffffffff163373ffffffffffffffffffffffffffffffffffffffff161415610a7f578060016000600281101515610a5257fe5b602091828204019190066101000a81548160ff02191690836002811115610a7557fe5b0217905550610b1e565b60076001600281101515610a8f57fe5b0160009054906101000a900473ffffffffffffffffffffffffffffffffffffffff1673ffffffffffffffffffffffffffffffffffffffff163373ffffffffffffffffffffffffffffffffffffffff161415610b1d5780600180600281101515610af457fe5b602091828204019190066101000a81548160ff02191690836002811115610b1757fe5b02179055505b5b60016002811115610b2b57fe5b60016000600281101515610b3b57fe5b602091828204019190069054906101000a900460ff166002811115610b5c57fe5b148015610ba3575060016002811115610b7157fe5b600180600281101515610b8057fe5b602091828204019190069054906101000a900460ff166002811115610ba157fe5b145b15610dd45760016005811115610bb557fe5b600b60009054906101000a900460ff166005811115610bd057fe5b1415610c53576002600b60006101000a81548160ff02191690836005811115610bf557fe5b0217905550604080519081016040528060006002811115610c1257fe5b6002811115610c1d57fe5b815260200160006002811115610c2f57fe5b6002811115610c3a57fe5b8152506001906002610c4d929190611922565b50610dcf565b60026005811115610c6057fe5b600b60009054906101000a900460ff166005811115610c7b57fe5b1415610cfe576003600b60006101000a81548160ff02191690836005811115610ca057fe5b0217905550604080519081016040528060006002811115610cbd57fe5b6002811115610cc857fe5b815260200160006002811115610cda57fe5b6002811115610ce557fe5b8152506001906002610cf8929190611922565b50610dce565b60036005811115610d0b57fe5b600b60009054906101000a900460ff166005811115610d2657fe5b1415610dcc576004600b60006101000a81548160ff02191690836005811115610d4b57fe5b021790555060016000806101000a81548160ff02191690836002811115610d6e57fe5b0217905550604080519081016040528060006002811115610d8b57fe5b6002811115610d9657fe5b815260200160006002811115610da857fe5b6002811115610db357fe5b8152506001906002610dc6929190611922565b50610dcd565b5b5b5b610e80565b600280811115610de057fe5b60016000600281101515610df057fe5b602091828204019190069054906101000a900460ff166002811115610e1157fe5b1480610e565750600280811115610e2457fe5b600180600281101515610e3357fe5b602091828204019190069054906101000a900460ff166002811115610e5457fe5b145b15610e7f5760026000806101000a81548160ff02191690836002811115610e7957fe5b02179055505b5b50565b60608060608060036000016003600101600360020160038001838054600181600116156101000203166002900480601f016020809104026020016040519081016040528092919081815260200182805460018160011615610100020316600290048015610f315780601f10610f0657610100808354040283529160200191610f31565b820191906000526020600020905b815481529060010190602001808311610f1457829003601f168201915b50505050509350828054600181600116156101000203166002900480601f016020809104026020016040519081016040528092919081815260200182805460018160011615610100020316600290048015610fcd5780601f10610fa257610100808354040283529160200191610fcd565b820191906000526020600020905b815481529060010190602001808311610fb057829003601f168201915b50505050509250818054600181600116156101000203166002900480601f0160208091040260200160405190810160405280929190818152602001828054600181600116156101000203166002900480156110695780601f1061103e57610100808354040283529160200191611069565b820191906000526020600020905b81548152906001019060200180831161104c57829003601f168201915b50505050509150808054600181600116156101000203166002900480601f0160208091040260200160405190810160405280929190818152602001828054600181600116156101000203166002900480156111055780601f106110da57610100808354040283529160200191611105565b820191906000526020600020905b8154815290600101906020018083116110e857829003601f168201915b50505050509050935093509350935090919293565b60098160038110151561112957fe5b60209182820401919006915054906101000a900460ff1681565b6000806000806000600260000160009054906101000a900463ffffffff16600260000160049054906101000a900463ffffffff16600260000160089054906101000a900460ff16600260000160099054906101000a900463ffffffff166002600001600d9054906101000a900463ffffffff16945094509450945094509091929394565b6007816002811015156111d657fe5b016000915054906101000a900473ffffffffffffffffffffffffffffffffffffffff1681565b6112046119c4565b600160028060200260405190810160405280929190826002801561126b576020028201916000905b82829054906101000a900460ff16600281111561124557fe5b8152602001906001019060208260000104928301926001038202915080841161122c5790505b5050505050905090565b6000600581111561128257fe5b600b60009054906101000a900460ff16600581111561129d57fe5b1415156112a957600080fd5b600760006002811015156112b957fe5b0160009054906101000a900473ffffffffffffffffffffffffffffffffffffffff1673ffffffffffffffffffffffffffffffffffffffff163373ffffffffffffffffffffffffffffffffffffffff1614151561131457600080fd5b8060099060036113259291906119e6565b506001600b60006101000a81548160ff0219169083600581111561134557fe5b021790555050565b6002600581111561135a57fe5b600b60009054906101000a900460ff16600581111561137557fe5b14151561138157600080fd5b6007600060028110151561139157fe5b0160009054906101000a900473ffffffffffffffffffffffffffffffffffffffff1673ffffffffffffffffffffffffffffffffffffffff163373ffffffffffffffffffffffffffffffffffffffff161415156113ec57600080fd5b600060028111156113f957fe5b60018060028110151561140857fe5b602091828204019190069054906101000a900460ff16600281111561142957fe5b14151561143557600080fd5b816003600101908051906020019061144e9291906118a2565b506001600a600160048110151561146157fe5b602091828204019190066101000a81548160ff02191690831515021790555080600360020190805190602001906114999291906118a2565b506001600a60026004811015156114ac57fe5b602091828204019190066101000a81548160ff0219169083151502179055505050565b60008060009054906101000a900460ff16905090565b6114ed611a7f565b600960038060200260405190810160405280929190826003801561154b576020028201916000905b82829054906101000a900460ff161515815260200190600101906020826000010492830192600103820291508084116115155790505b5050505050905090565b600b60009054906101000a900460ff1681565b6002600581111561157557fe5b600b60009054906101000a900460ff16600581111561159057fe5b14151561159c57600080fd5b600760006002811015156115ac57fe5b0160009054906101000a900473ffffffffffffffffffffffffffffffffffffffff1673ffffffffffffffffffffffffffffffffffffffff163373ffffffffffffffffffffffffffffffffffffffff1614151561160757600080fd5b6000600281111561161457fe5b60018060028110151561162357fe5b602091828204019190069054906101000a900460ff16600281111561164457fe5b14151561165057600080fd5b80600360000190805190602001906116699291906118a2565b506001600a600060048110151561167c57fe5b602091828204019190066101000a81548160ff02191690831515021790555050565b600160058111156116ab57fe5b600b60009054906101000a900460ff1660058111156116c657fe5b1415156116d257600080fd5b600760016002811015156116e257fe5b0160009054906101000a900473ffffffffffffffffffffffffffffffffffffffff1673ffffffffffffffffffffffffffffffffffffffff163373ffffffffffffffffffffffffffffffffffffffff1614151561173d57600080fd5b6000600281111561174a57fe5b60018060028110151561175957fe5b602091828204019190069054906101000a900460ff16600281111561177a57fe5b14151561178657600080fd5b60a0604051908101604052808663ffffffff1681526020018563ffffffff1681526020018460018111156117b657fe5b81526020018363ffffffff1681526020018263ffffffff16815250600260008201518160000160006101000a81548163ffffffff021916908363ffffffff16021790555060208201518160000160046101000a81548163ffffffff021916908363ffffffff16021790555060408201518160000160086101000a81548160ff0219169083600181111561184557fe5b021790555060608201518160000160096101000a81548163ffffffff021916908363ffffffff160217905550608082015181600001600d6101000a81548163ffffffff021916908363ffffffff1602179055509050505050505050565b828054600181600116156101000203166002900490600052602060002090601f016020900481019282601f106118e357805160ff1916838001178555611911565b82800160010185558215611911579182015b828111156119105782518255916020019190600101906118f5565b5b50905061191e9190611aa2565b5090565b826002601f016020900481019282156119b35791602002820160005b8382111561198457835183826101000a81548160ff0219169083600281111561196357fe5b0217905550926020019260010160208160000104928301926001030261193e565b80156119b15782816101000a81549060ff0219169055600101602081600001049283019260010302611984565b505b5090506119c09190611ac7565b5090565b6040805190810160405280600290602082028038833980820191505090505090565b826003601f01602090048101928215611a6e5791602002820160005b83821115611a3f57835183826101000a81548160ff0219169083151502179055509260200192600101602081600001049283019260010302611a02565b8015611a6c5782816101000a81549060ff0219169055600101602081600001049283019260010302611a3f565b505b509050611a7b9190611af7565b5090565b606060405190810160405280600390602082028038833980820191505090505090565b611ac491905b80821115611ac0576000816000905550600101611aa8565b5090565b90565b611af491905b80821115611af057600081816101000a81549060ff021916905550600101611acd565b5090565b90565b611b2491905b80821115611b2057600081816101000a81549060ff021916905550600101611afd565b5090565b905600a165627a7a72305820e0313c270bce098efed558cf386033ccca20e9cf170464f859c9f9dde01d4b750029a165627a7a72305820078e08b265e7cabaec4991bc9f32baf3359305bc6d381a1ee7d626f16449f7c20029",
  "source": "pragma solidity ^0.4.24;\r\n\r\ncontract Common{\r\n    enum eImplementer{\r\n        Seller,\r\n        Buyer\r\n    }\r\n    \r\n    enum eContractStatus{\r\n        InProgress,\r\n        Finished,\r\n        Rejected\r\n    }\r\n    \r\n    enum eConfirmStatus{\r\n        None,\r\n        Accept,\r\n        Reject\r\n    }\r\n    \r\n    enum eDiscountType{ Percent, Cash }\r\n    \r\n    eContractStatus eStatus;\r\n    eConfirmStatus[2] eComfirmation;\r\n    \r\n    function getContractStatus()\r\n            public\r\n            view\r\n            returns(eContractStatus)\r\n    {\r\n        return eStatus;\r\n    }\r\n}\r\n\r\ncontract TradingContract is Common{\r\n    enum eOpState{\r\n        opInsuranceOption,\r\n        opDealling,\r\n        opDocument,\r\n        opTransfer,\r\n        opFinish,\r\n        opReject\r\n    }\r\n    \r\n    struct Price{\r\n        uint32 uPrice;\r\n        uint32 uDiscount;\r\n        eDiscountType etype;\r\n        uint32 uInsurance;\r\n        uint32 uExtraFree;\r\n    } \r\n    Price price;\r\n    \r\n    struct sDocument{\r\n        string sReceipt;\r\n        string sDoc1;\r\n        string sDoc2;\r\n        string sDoc3;\r\n    }\r\n    sDocument document;\r\n    \r\n    address[2] public aOwnerAddrs;\r\n    bool[3] public bInsuranceOptions;\r\n    bool[4] private fileUploaded;\r\n    \r\n    eOpState public opState;\r\n    \r\n    modifier onlyOwner{\r\n        require(msg.sender == aOwnerAddrs[0] ||\r\n                msg.sender == aOwnerAddrs[1]);\r\n        _;\r\n    }\r\n    \r\n    modifier onlyBuyer{\r\n        require(msg.sender == aOwnerAddrs[0]);\r\n        _;\r\n    }\r\n    \r\n    modifier onlySeller{\r\n        require(msg.sender == aOwnerAddrs[1]);\r\n        _;\r\n    }\r\n    \r\n    modifier onlyInsuranceOption{\r\n        require(opState == eOpState.opInsuranceOption);\r\n        _;\r\n    }\r\n    \r\n    modifier rejectInsuranceOption{\r\n        require(opState != eOpState.opInsuranceOption);\r\n        _;\r\n    }\r\n    \r\n    modifier onlyDealling{\r\n        require(opState == eOpState.opDealling);\r\n        _;\r\n    }\r\n    \r\n    modifier onlyTransferDocument{\r\n        require(opState == eOpState.opDocument);\r\n        _;\r\n    }\r\n    \r\n    modifier restricConfirmation{\r\n        require(eStatus != eContractStatus.Finished);\r\n        _;\r\n    }\r\n    \r\n    modifier checkDeallingValidData{\r\n        require(price.uPrice != 0 &&\r\n                price.uInsurance != 0 &&\r\n                price.uExtraFree != 0);\r\n        _;\r\n    }\r\n    \r\n    modifier restricBuyerModify{\r\n        require(eComfirmation[1] == eConfirmStatus.None);\r\n        _;\r\n    }\r\n    \r\n    modifier restricSellerModify{\r\n        require(eComfirmation[0] == eConfirmStatus.None);\r\n        _;\r\n    }\r\n    \r\n    modifier checkValidDocument{\r\n        require(fileUploaded[0] == true &&\r\n                fileUploaded[1] == true &&\r\n                fileUploaded[2] == true &&\r\n                fileUploaded[3] == true);\r\n        _;\r\n    }\r\n    \r\n    constructor\r\n            (address inSeller) \r\n            public\r\n    {\r\n        aOwnerAddrs = [msg.sender, inSeller];\r\n        eStatus = eContractStatus.InProgress;\r\n        \r\n        opState = eOpState.opInsuranceOption;\r\n        \r\n        bInsuranceOptions = [false, false, false];\r\n        price = Price(0, 0, eDiscountType.Percent, 0, 0);\r\n        \r\n        document = sDocument(\"\", \"\", \"\", \"\");\r\n        fileUploaded = [false, false, false, false];\r\n    }\r\n    \r\n    function sendConfirmation\r\n            (eConfirmStatus inConfirm)\r\n            restricConfirmation\r\n            onlyOwner\r\n            rejectInsuranceOption\r\n            public\r\n    {\r\n        if(msg.sender == aOwnerAddrs[0]){\r\n            eComfirmation[0] = inConfirm;\r\n        } else if (msg.sender == aOwnerAddrs[1]){\r\n            eComfirmation[1] = inConfirm;\r\n        }\r\n        \r\n        if(eComfirmation[0] == eConfirmStatus.Accept && eComfirmation[1] == eConfirmStatus.Accept){\r\n            if(opState == eOpState.opDealling)              // State 1 (Dealling)\r\n            {\r\n                opState = eOpState.opDocument;\r\n                eComfirmation = [eConfirmStatus.None, eConfirmStatus.None];\r\n            } else if(opState == eOpState.opDocument)       // State 2 (Prepare document and transfer money)\r\n            {\r\n                opState = eOpState.opTransfer;\r\n                eComfirmation = [eConfirmStatus.None, eConfirmStatus.None];\r\n            } else if(opState == eOpState.opTransfer)       // State 3 (Transfer car)\r\n            {\r\n                opState = eOpState.opFinish;\r\n                eStatus = eContractStatus.Finished;\r\n                eComfirmation = [eConfirmStatus.None, eConfirmStatus.None];\r\n            } else{}\r\n        } else if(eComfirmation[0] == eConfirmStatus.Reject || eComfirmation[1] == eConfirmStatus.Reject){\r\n            eStatus = eContractStatus.Rejected;\r\n        }\r\n    }\r\n    \r\n    function updateOption\r\n            (bool[3] inOptions)\r\n            onlyInsuranceOption\r\n            onlyBuyer\r\n            public\r\n    {\r\n        bInsuranceOptions = inOptions;\r\n        opState = eOpState.opDealling;\r\n    }\r\n    \r\n    function getOptions()\r\n            public\r\n            view\r\n            returns(bool[3])\r\n    {\r\n        return bInsuranceOptions;\r\n    }\r\n    \r\n    function updateFixedPrice\r\n            (uint32 inPrice, uint32 inDiscount, eDiscountType inType, uint32 inInsurance, uint32 inExtraFee)\r\n            onlyDealling\r\n            onlySeller\r\n            restricBuyerModify\r\n            public\r\n    {\r\n        price = Price(inPrice, inDiscount, inType, inInsurance, inExtraFee);\r\n    }\r\n\r\n    function getFixedPrice()\r\n            public\r\n            view\r\n            returns(uint32, uint32, eDiscountType, uint32, uint32)\r\n    {\r\n        return (price.uPrice, price.uDiscount, price.etype, price.uInsurance, price.uExtraFree);\r\n    }\r\n    \r\n    function updateReceipt\r\n            (string inReceiptInfo)\r\n            onlyTransferDocument\r\n            onlyBuyer\r\n            restricBuyerModify\r\n            public\r\n    {\r\n        document.sReceipt = inReceiptInfo;\r\n        fileUploaded[0] = true;\r\n    }\r\n    \r\n    function updateBuyerDocument\r\n            (string inDoc1, string inDoc2)\r\n            onlyTransferDocument\r\n            onlyBuyer\r\n            restricBuyerModify\r\n            public\r\n    {\r\n        document.sDoc1 = inDoc1;\r\n        fileUploaded[1] = true;\r\n        document.sDoc2 = inDoc2;\r\n        fileUploaded[2] = true;\r\n    }\r\n    \r\n    function updateSellerDocument\r\n            (string inDoc3)\r\n            onlyTransferDocument\r\n            onlySeller\r\n            restricSellerModify\r\n            public\r\n    {\r\n        document.sDoc3 = inDoc3;\r\n        fileUploaded[3] = true;\r\n    }\r\n\r\n    function getDocumentInfo()\r\n            public\r\n            view\r\n            returns(string, string, string, string)\r\n    {\r\n        return (document.sReceipt, document.sDoc1, document.sDoc2, document.sDoc3);\r\n    }\r\n\r\n    function getConfirmationStatus()\r\n            public\r\n            view\r\n            returns(eConfirmStatus[2])\r\n    {\r\n        return eComfirmation;\r\n    }\r\n}\r\n\r\ncontract SummaryContract{\r\n    enum ContractStt\r\n    {\r\n        Disabled,\r\n        InProgress,\r\n        Done\r\n    }\r\n    \r\n    struct ContractInfo\r\n    {\r\n        string sName;\r\n        address aRelatedAddr;\r\n        address aContractAddr;\r\n        uint8 bStatus;\r\n    }\r\n    ContractInfo mCI;\r\n\r\n    address public mOwnerAddr;\r\n    ContractInfo[] private mWaitProcessContract;\r\n    ContractInfo[] private mMainContracts;\r\n    \r\n    // Set permission for owner only\r\n    modifier onlyOwner\r\n    {\r\n        require(msg.sender == mOwnerAddr);\r\n        _;\r\n    }\r\n\r\n    // Constructor\r\n    constructor\r\n            (address userAddr)\r\n            public\r\n    {\r\n        mOwnerAddr = userAddr;\r\n    }\r\n\r\n    // Create new contract\r\n    function createNewContract\r\n            (address inSeller, string inContractName)\r\n            onlyOwner\r\n            public\r\n    {\r\n        mCI.sName = inContractName;\r\n        mCI.aRelatedAddr = inSeller;\r\n        mCI.aContractAddr = new TradingContract(inSeller);\r\n        mCI.bStatus = uint8(ContractStt.InProgress);\r\n\r\n        mMainContracts.push(mCI);\r\n    }\r\n\r\n    // Add temporary contract to waiting list\r\n    function addTempContract\r\n            (address inContractAddr, string inContractName) \r\n            public\r\n    {\r\n        mCI.sName = inContractName;\r\n        mCI.aRelatedAddr = msg.sender;\r\n        mCI.aContractAddr = inContractAddr;\r\n        mCI.bStatus = uint8(ContractStt.Disabled);\r\n        \r\n        mWaitProcessContract.push(mCI);\r\n    }\r\n    \r\n    // Get temporary contract list length\r\n    function getTempContractLen() \r\n            onlyOwner\r\n            public\r\n            view\r\n            returns(uint256)\r\n    {\r\n        return mWaitProcessContract.length;\r\n    }\r\n    \r\n    // Get contract information at index\r\n    function getTempContractAtIndex\r\n            (uint256 inIndex)\r\n            onlyOwner\r\n            public\r\n            view\r\n            returns(string oName, address oRelatedUser, address oContractAddr, uint8 oStatus)\r\n    {\r\n        if(inIndex >= mWaitProcessContract.length ||\r\n            inIndex < 0) return;\r\n        return (mWaitProcessContract[inIndex].sName,\r\n                mWaitProcessContract[inIndex].aRelatedAddr, \r\n                mWaitProcessContract[inIndex].aContractAddr, \r\n                mWaitProcessContract[inIndex].bStatus);\r\n    }\r\n\r\n    // Remove temporary contract at index\r\n    function delTempContractAtIndex\r\n            (uint256 inIndex)\r\n            onlyOwner\r\n            public\r\n    {\r\n        // Check if index is invalid\r\n        if(inIndex >= mWaitProcessContract.length ||\r\n            inIndex < 0) return;\r\n        // Delete temporary contract at index\r\n        for(uint i = inIndex; i < mWaitProcessContract.length-1; i++){\r\n            mWaitProcessContract[i] = mWaitProcessContract[i+1];\r\n        }\r\n        delete mWaitProcessContract[mWaitProcessContract.length-1];\r\n        mWaitProcessContract.length--;\r\n    }\r\n    \r\n    // Add temporary contract to main contract list\r\n    function addTempContract2List\r\n            (uint256 inIndex)\r\n            onlyOwner\r\n            public\r\n    {\r\n        // Check if index is invalid\r\n        if(inIndex >= mWaitProcessContract.length ||\r\n            inIndex < 0) return;\r\n        mMainContracts.push(mWaitProcessContract[inIndex]);\r\n        mMainContracts[mMainContracts.length-1].bStatus = uint8(ContractStt.InProgress);\r\n        \r\n        // Delete temporary contract at index\r\n        for(uint i = inIndex; i < mWaitProcessContract.length-1; i++){\r\n            mWaitProcessContract[i] = mWaitProcessContract[i+1];\r\n        }\r\n        delete mWaitProcessContract[mWaitProcessContract.length-1];\r\n        mWaitProcessContract.length--;\r\n    }\r\n    \r\n    // Get contract in main list at index\r\n    function getContractInfoAtIndex\r\n            (uint256 inIndex)\r\n            onlyOwner\r\n            public\r\n            view\r\n            returns(string oName, address oRelatedUser, address oContractAddr, uint8 oStatus)\r\n    {\r\n        if(inIndex >= mMainContracts.length ||\r\n            inIndex < 0) return;\r\n        return (mMainContracts[inIndex].sName,\r\n                mMainContracts[inIndex].aRelatedAddr,\r\n                mMainContracts[inIndex].aContractAddr, \r\n                mMainContracts[inIndex].bStatus);\r\n    }\r\n    \r\n    // Get temporary contract list length\r\n    function getMainContractLen() \r\n            onlyOwner\r\n            public\r\n            view\r\n            returns(uint256)\r\n    {\r\n        return mMainContracts.length;\r\n    }\r\n    \r\n    // Disable main contract at index\r\n    function disableContractAtIndex\r\n            (uint256 inIndex)\r\n            onlyOwner\r\n            public\r\n    {\r\n        // Check if index is invalid\r\n        if(inIndex >= mMainContracts.length ||\r\n            inIndex < 0) return;\r\n        mMainContracts[inIndex].bStatus = uint8(ContractStt.Disabled);\r\n    }\r\n}\r\n\r\ncontract GlobalContact{\r\n    enum UserType\r\n    {\r\n        Normal,\r\n        Insurer\r\n    }\r\n\r\n    address public mOwnerAddr;\r\n    \r\n    struct RC{\r\n        string name;\r\n        uint64 id_number;\r\n        address accAddr;\r\n        address SContract;\r\n        UserType uType;\r\n    }\r\n    RC rc;\r\n    \r\n    mapping(uint64 => RC) private userByID;\r\n    mapping(address => RC) private userByAddr;\r\n    \r\n    modifier onlyOwner{\r\n        require(msg.sender == mOwnerAddr);\r\n        _;\r\n    }\r\n    \r\n    constructor() public{\r\n        mOwnerAddr = msg.sender;\r\n    }\r\n    \r\n    function newRegistor\r\n            (string name, uint64 id_number, address accAddr, UserType inType) \r\n            onlyOwner \r\n            public\r\n    {\r\n        rc.name = name;\r\n        rc.id_number = id_number;\r\n        rc.accAddr = accAddr;\r\n        rc.SContract = new SummaryContract(accAddr);\r\n        rc.uType = inType;\r\n        \r\n        userByID[id_number] = rc;\r\n        userByAddr[accAddr] = rc;\r\n    }\r\n    \r\n    function getUserInfoByID\r\n            (uint64 id_number) \r\n            public \r\n            view \r\n            returns(string, address, address, UserType)\r\n    {\r\n        return (userByID[id_number].name,\r\n                userByID[id_number].accAddr,\r\n                userByID[id_number].SContract,\r\n                userByID[id_number].uType);\r\n    }\r\n\r\n    function getUserInfoByAddr\r\n            (address inUserAddr)\r\n            public\r\n            view\r\n            returns(string, uint64, address, UserType)\r\n    {\r\n        return (userByAddr[inUserAddr].name,\r\n                userByAddr[inUserAddr].id_number,\r\n                userByAddr[inUserAddr].SContract,\r\n                userByAddr[inUserAddr].uType);\r\n    }\r\n}",
  "sourcePath": "D:/Programming/Blockchain/contracts/Contracts.sol",
  "compiler": {
    "name": "solc",
    "version": "0.4.24+commit.e67f0147.Emscripten.clang"
  },
  "schemaVersion": "3.0.19",
  "updatedAt": "2019-11-16T04:06:38.514Z",
  "devdoc": {
    "methods": {}
  },
  "userdoc": {
    "methods": {}
  }
}