{
  "contractName": "Common",
  "abi": [
    {
      "constant": true,
      "inputs": [],
      "name": "getContractStatus",
      "outputs": [
        {
          "name": "",
          "type": "uint8"
        }
      ],
      "payable": false,
      "stateMutability": "view",
      "type": "function"
    }
  ],
  "bytecode": "0x608060405234801561001057600080fd5b5060bb8061001f6000396000f300608060405260043610603f576000357c0100000000000000000000000000000000000000000000000000000000900463ffffffff168063c032846b146044575b600080fd5b348015604f57600080fd5b5060566079565b60405180826002811115606557fe5b60ff16815260200191505060405180910390f35b60008060009054906101000a900460ff169050905600a165627a7a723058207fda8f90156971cb53bfe17fbe351d3b9c7789314916c75f3a509d08e50d50380029",
  "source": "pragma solidity ^0.4.24;\r\n\r\ncontract Common{\r\n    enum eImplementer{\r\n        Seller,\r\n        Buyer\r\n    }\r\n    \r\n    enum eContractStatus{\r\n        InProgress,\r\n        Finished,\r\n        Rejected\r\n    }\r\n    \r\n    enum eConfirmStatus{\r\n        None,\r\n        Accept,\r\n        Reject\r\n    }\r\n    \r\n    enum eDiscountType{ Percent, Cash }\r\n    \r\n    eContractStatus eStatus;\r\n    eConfirmStatus[2] eComfirmation;\r\n    \r\n    function getContractStatus()\r\n            public\r\n            view\r\n            returns(eContractStatus)\r\n    {\r\n        return eStatus;\r\n    }\r\n}\r\n\r\ncontract TradingContract is Common{\r\n    enum eOpState{\r\n        opInsuranceOption,\r\n        opDealling,\r\n        opDocument,\r\n        opTransfer,\r\n        opFinish,\r\n        opReject\r\n    }\r\n    \r\n    struct Price{\r\n        uint32 uPrice;\r\n        uint32 uDiscount;\r\n        eDiscountType etype;\r\n        uint32 uInsurance;\r\n        uint32 uExtraFree;\r\n    } \r\n    Price price;\r\n    \r\n    struct sDocument{\r\n        string sReceipt;\r\n        string sDoc1;\r\n        string sDoc2;\r\n        string sDoc3;\r\n    }\r\n    sDocument document;\r\n    \r\n    address[2] public aOwnerAddrs;\r\n    bool[3] public bInsuranceOptions;\r\n    bool[4] private fileUploaded;\r\n    \r\n    eOpState public opState;\r\n    \r\n    modifier onlyOwner{\r\n        require(msg.sender == aOwnerAddrs[0] ||\r\n                msg.sender == aOwnerAddrs[1]);\r\n        _;\r\n    }\r\n    \r\n    modifier onlyBuyer{\r\n        require(msg.sender == aOwnerAddrs[0]);\r\n        _;\r\n    }\r\n    \r\n    modifier onlySeller{\r\n        require(msg.sender == aOwnerAddrs[1]);\r\n        _;\r\n    }\r\n    \r\n    modifier onlyInsuranceOption{\r\n        require(opState == eOpState.opInsuranceOption);\r\n        _;\r\n    }\r\n    \r\n    modifier rejectInsuranceOption{\r\n        require(opState != eOpState.opInsuranceOption);\r\n        _;\r\n    }\r\n    \r\n    modifier onlyDealling{\r\n        require(opState == eOpState.opDealling);\r\n        _;\r\n    }\r\n    \r\n    modifier onlyTransferDocument{\r\n        require(opState == eOpState.opDocument);\r\n        _;\r\n    }\r\n    \r\n    modifier restricConfirmation{\r\n        require(eStatus != eContractStatus.Finished);\r\n        _;\r\n    }\r\n    \r\n    modifier checkDeallingValidData{\r\n        require(price.uPrice != 0 &&\r\n                price.uInsurance != 0 &&\r\n                price.uExtraFree != 0);\r\n        _;\r\n    }\r\n    \r\n    modifier restricBuyerModify{\r\n        require(eComfirmation[1] == eConfirmStatus.None);\r\n        _;\r\n    }\r\n    \r\n    modifier restricSellerModify{\r\n        require(eComfirmation[0] == eConfirmStatus.None);\r\n        _;\r\n    }\r\n    \r\n    modifier checkValidDocument{\r\n        require(fileUploaded[0] == true &&\r\n                fileUploaded[1] == true &&\r\n                fileUploaded[2] == true &&\r\n                fileUploaded[3] == true);\r\n        _;\r\n    }\r\n    \r\n    constructor\r\n            (address inSeller) \r\n            public\r\n    {\r\n        aOwnerAddrs = [msg.sender, inSeller];\r\n        eStatus = eContractStatus.InProgress;\r\n        \r\n        opState = eOpState.opInsuranceOption;\r\n        \r\n        bInsuranceOptions = [false, false, false];\r\n        price = Price(0, 0, eDiscountType.Percent, 0, 0);\r\n        \r\n        document = sDocument(\"\", \"\", \"\", \"\");\r\n        fileUploaded = [false, false, false, false];\r\n    }\r\n    \r\n    function sendConfirmation\r\n            (eConfirmStatus inConfirm)\r\n            restricConfirmation\r\n            onlyOwner\r\n            rejectInsuranceOption\r\n            public\r\n    {\r\n        if(msg.sender == aOwnerAddrs[0]){\r\n            eComfirmation[0] = inConfirm;\r\n        } else if (msg.sender == aOwnerAddrs[1]){\r\n            eComfirmation[1] = inConfirm;\r\n        }\r\n        \r\n        if(eComfirmation[0] == eConfirmStatus.Accept && eComfirmation[1] == eConfirmStatus.Accept){\r\n            if(opState == eOpState.opDealling)              // State 1 (Dealling)\r\n            {\r\n                opState = eOpState.opDocument;\r\n                eComfirmation = [eConfirmStatus.None, eConfirmStatus.None];\r\n            } else if(opState == eOpState.opDocument)       // State 2 (Prepare document and transfer money)\r\n            {\r\n                opState = eOpState.opTransfer;\r\n                eComfirmation = [eConfirmStatus.None, eConfirmStatus.None];\r\n            } else if(opState == eOpState.opTransfer)       // State 3 (Transfer car)\r\n            {\r\n                opState = eOpState.opFinish;\r\n                eStatus = eContractStatus.Finished;\r\n                eComfirmation = [eConfirmStatus.None, eConfirmStatus.None];\r\n            } else{}\r\n        } else if(eComfirmation[0] == eConfirmStatus.Reject || eComfirmation[1] == eConfirmStatus.Reject){\r\n            eStatus = eContractStatus.Rejected;\r\n        }\r\n    }\r\n    \r\n    function updateOption\r\n            (bool[3] inOptions)\r\n            onlyInsuranceOption\r\n            onlyBuyer\r\n            public\r\n    {\r\n        bInsuranceOptions = inOptions;\r\n        opState = eOpState.opDealling;\r\n    }\r\n    \r\n    function getOptions()\r\n            public\r\n            view\r\n            returns(bool[3])\r\n    {\r\n        return bInsuranceOptions;\r\n    }\r\n    \r\n    function updateFixedPrice\r\n            (uint32 inPrice, uint32 inDiscount, eDiscountType inType, uint32 inInsurance, uint32 inExtraFee)\r\n            onlyDealling\r\n            onlySeller\r\n            restricBuyerModify\r\n            public\r\n    {\r\n        price = Price(inPrice, inDiscount, inType, inInsurance, inExtraFee);\r\n    }\r\n\r\n    function getFixedPrice()\r\n            public\r\n            view\r\n            returns(uint32, uint32, eDiscountType, uint32, uint32)\r\n    {\r\n        return (price.uPrice, price.uDiscount, price.etype, price.uInsurance, price.uExtraFree);\r\n    }\r\n    \r\n    function updateReceipt\r\n            (string inReceiptInfo)\r\n            onlyTransferDocument\r\n            onlyBuyer\r\n            restricBuyerModify\r\n            public\r\n    {\r\n        document.sReceipt = inReceiptInfo;\r\n        fileUploaded[0] = true;\r\n    }\r\n    \r\n    function updateBuyerDocument\r\n            (string inDoc1, string inDoc2)\r\n            onlyTransferDocument\r\n            onlyBuyer\r\n            restricBuyerModify\r\n            public\r\n    {\r\n        document.sDoc1 = inDoc1;\r\n        fileUploaded[1] = true;\r\n        document.sDoc2 = inDoc2;\r\n        fileUploaded[2] = true;\r\n    }\r\n    \r\n    function updateSellerDocument\r\n            (string inDoc3)\r\n            onlyTransferDocument\r\n            onlySeller\r\n            restricSellerModify\r\n            public\r\n    {\r\n        document.sDoc3 = inDoc3;\r\n        fileUploaded[3] = true;\r\n    }\r\n\r\n    function getDocumentInfo()\r\n            public\r\n            view\r\n            returns(string, string, string, string)\r\n    {\r\n        return (document.sReceipt, document.sDoc1, document.sDoc2, document.sDoc3);\r\n    }\r\n\r\n    function getConfirmationStatus()\r\n            public\r\n            view\r\n            returns(eConfirmStatus[2])\r\n    {\r\n        return eComfirmation;\r\n    }\r\n}\r\n\r\ncontract SummaryContract{\r\n    enum ContractStt\r\n    {\r\n        Disabled,\r\n        InProgress,\r\n        Done\r\n    }\r\n    \r\n    struct ContractInfo\r\n    {\r\n        string sName;\r\n        address aRelatedAddr;\r\n        address aContractAddr;\r\n        uint8 bStatus;\r\n    }\r\n    ContractInfo mCI;\r\n\r\n    address public mOwnerAddr;\r\n    ContractInfo[] private mWaitProcessContract;\r\n    ContractInfo[] private mMainContracts;\r\n    \r\n    // Set permission for owner only\r\n    modifier onlyOwner\r\n    {\r\n        require(msg.sender == mOwnerAddr);\r\n        _;\r\n    }\r\n\r\n    // Constructor\r\n    constructor\r\n            (address userAddr)\r\n            public\r\n    {\r\n        mOwnerAddr = userAddr;\r\n    }\r\n\r\n    // Create new contract\r\n    function createNewContract\r\n            (address inSeller, string inContractName)\r\n            onlyOwner\r\n            public\r\n    {\r\n        mCI.sName = inContractName;\r\n        mCI.aRelatedAddr = inSeller;\r\n        mCI.aContractAddr = new TradingContract(inSeller);\r\n        mCI.bStatus = uint8(ContractStt.InProgress);\r\n\r\n        mMainContracts.push(mCI);\r\n    }\r\n\r\n    // Add temporary contract to waiting list\r\n    function addTempContract\r\n            (address inContractAddr, string inContractName) \r\n            public\r\n    {\r\n        mCI.sName = inContractName;\r\n        mCI.aRelatedAddr = msg.sender;\r\n        mCI.aContractAddr = inContractAddr;\r\n        mCI.bStatus = uint8(ContractStt.Disabled);\r\n        \r\n        mWaitProcessContract.push(mCI);\r\n    }\r\n    \r\n    // Get temporary contract list length\r\n    function getTempContractLen() \r\n            onlyOwner\r\n            public\r\n            view\r\n            returns(uint256)\r\n    {\r\n        return mWaitProcessContract.length;\r\n    }\r\n    \r\n    // Get contract information at index\r\n    function getTempContractAtIndex\r\n            (uint256 inIndex)\r\n            onlyOwner\r\n            public\r\n            view\r\n            returns(string oName, address oRelatedUser, address oContractAddr, uint8 oStatus)\r\n    {\r\n        if(inIndex >= mWaitProcessContract.length ||\r\n            inIndex < 0) return;\r\n        return (mWaitProcessContract[inIndex].sName,\r\n                mWaitProcessContract[inIndex].aRelatedAddr, \r\n                mWaitProcessContract[inIndex].aContractAddr, \r\n                mWaitProcessContract[inIndex].bStatus);\r\n    }\r\n\r\n    // Remove temporary contract at index\r\n    function delTempContractAtIndex\r\n            (uint256 inIndex)\r\n            onlyOwner\r\n            public\r\n    {\r\n        // Check if index is invalid\r\n        if(inIndex >= mWaitProcessContract.length ||\r\n            inIndex < 0) return;\r\n        // Delete temporary contract at index\r\n        for(uint i = inIndex; i < mWaitProcessContract.length-1; i++){\r\n            mWaitProcessContract[i] = mWaitProcessContract[i+1];\r\n        }\r\n        delete mWaitProcessContract[mWaitProcessContract.length-1];\r\n        mWaitProcessContract.length--;\r\n    }\r\n    \r\n    // Add temporary contract to main contract list\r\n    function addTempContract2List\r\n            (uint256 inIndex)\r\n            onlyOwner\r\n            public\r\n    {\r\n        // Check if index is invalid\r\n        if(inIndex >= mWaitProcessContract.length ||\r\n            inIndex < 0) return;\r\n        mMainContracts.push(mWaitProcessContract[inIndex]);\r\n        mMainContracts[mMainContracts.length-1].bStatus = uint8(ContractStt.InProgress);\r\n        \r\n        // Delete temporary contract at index\r\n        for(uint i = inIndex; i < mWaitProcessContract.length-1; i++){\r\n            mWaitProcessContract[i] = mWaitProcessContract[i+1];\r\n        }\r\n        delete mWaitProcessContract[mWaitProcessContract.length-1];\r\n        mWaitProcessContract.length--;\r\n    }\r\n    \r\n    // Get contract in main list at index\r\n    function getContractInfoAtIndex\r\n            (uint256 inIndex)\r\n            onlyOwner\r\n            public\r\n            view\r\n            returns(string oName, address oRelatedUser, address oContractAddr, uint8 oStatus)\r\n    {\r\n        if(inIndex >= mMainContracts.length ||\r\n            inIndex < 0) return;\r\n        return (mMainContracts[inIndex].sName,\r\n                mMainContracts[inIndex].aRelatedAddr,\r\n                mMainContracts[inIndex].aContractAddr, \r\n                mMainContracts[inIndex].bStatus);\r\n    }\r\n    \r\n    // Get temporary contract list length\r\n    function getMainContractLen() \r\n            onlyOwner\r\n            public\r\n            view\r\n            returns(uint256)\r\n    {\r\n        return mMainContracts.length;\r\n    }\r\n    \r\n    // Disable main contract at index\r\n    function disableContractAtIndex\r\n            (uint256 inIndex)\r\n            onlyOwner\r\n            public\r\n    {\r\n        // Check if index is invalid\r\n        if(inIndex >= mMainContracts.length ||\r\n            inIndex < 0) return;\r\n        mMainContracts[inIndex].bStatus = uint8(ContractStt.Disabled);\r\n    }\r\n}\r\n\r\ncontract GlobalContact{\r\n    enum UserType\r\n    {\r\n        Normal,\r\n        Insurer\r\n    }\r\n\r\n    address public mOwnerAddr;\r\n    \r\n    struct RC{\r\n        string name;\r\n        uint64 id_number;\r\n        address accAddr;\r\n        address SContract;\r\n        UserType uType;\r\n    }\r\n    RC rc;\r\n    \r\n    mapping(uint64 => RC) private userByID;\r\n    mapping(address => RC) private userByAddr;\r\n    \r\n    modifier onlyOwner{\r\n        require(msg.sender == mOwnerAddr);\r\n        _;\r\n    }\r\n    \r\n    constructor() public{\r\n        mOwnerAddr = msg.sender;\r\n    }\r\n    \r\n    function newRegistor\r\n            (string name, uint64 id_number, address accAddr, UserType inType) \r\n            onlyOwner \r\n            public\r\n    {\r\n        rc.name = name;\r\n        rc.id_number = id_number;\r\n        rc.accAddr = accAddr;\r\n        rc.SContract = new SummaryContract(accAddr);\r\n        rc.uType = inType;\r\n        \r\n        userByID[id_number] = rc;\r\n        userByAddr[accAddr] = rc;\r\n    }\r\n\r\n    function getUserNameByID\r\n            (uint64 id_number) \r\n            public \r\n            view \r\n            returns(string)\r\n    {\r\n        return (userByID[id_number].name);\r\n    }\r\n    \r\n    function getUserInfoByID\r\n            (uint64 id_number) \r\n            public \r\n            view \r\n            returns(string, address, address, UserType)\r\n    {\r\n        return (userByID[id_number].name,\r\n                userByID[id_number].accAddr,\r\n                userByID[id_number].SContract,\r\n                userByID[id_number].uType);\r\n    }\r\n\r\n    function getUserInfoByAddr\r\n            (address inUserAddr)\r\n            public\r\n            view\r\n            returns(string, uint64, address, UserType)\r\n    {\r\n        return (userByAddr[inUserAddr].name,\r\n                userByAddr[inUserAddr].id_number,\r\n                userByAddr[inUserAddr].SContract,\r\n                userByAddr[inUserAddr].uType);\r\n    }\r\n}",
  "sourcePath": "D:/Programming/SensorCar/contracts/Contracts.sol",
  "compiler": {
    "name": "solc",
    "version": "0.4.24+commit.e67f0147.Emscripten.clang"
  },
  "schemaVersion": "3.0.19",
  "updatedAt": "2019-11-16T21:02:16.800Z",
  "devdoc": {
    "methods": {}
  },
  "userdoc": {
    "methods": {}
  }
}